{"abi":[{"type":"function","name":"NIL16","inputs":[],"outputs":[{"name":"","type":"uint256","internalType":"euint16"}],"stateMutability":"view"},{"type":"function","name":"NIL32","inputs":[],"outputs":[{"name":"","type":"uint256","internalType":"euint32"}],"stateMutability":"view"},{"type":"function","name":"NIL8","inputs":[],"outputs":[{"name":"","type":"uint256","internalType":"euint8"}],"stateMutability":"view"}],"bytecode":{"object":"0x609b6037600b82828239805160001a607314602a57634e487b7160e01b600052600060045260246000fd5b30600052607381538281f3fe730000000000000000000000000000000000000000301460806040526004361060475760003560e01c80639e80b51314604c578063acfc53ee14604c578063b1c4854414604c575b600080fd5b6053600081565b60405190815260200160405180910390f3fea264697066735822122074e5da99b9e63cfaf3775fd1ce0cc421e85f2bf6ae20521b0bd55711c6a26bc764736f6c634300081a0033","linkReferences":{}},"methodIdentifiers":{"NIL16()":"acfc53ee","NIL32()":"9e80b513","NIL8()":"b1c48544"},"id":1}