{"abi":[{"type":"function","name":"add","inputs":[{"name":"utype","type":"uint8","internalType":"uint8"},{"name":"lhsHash","type":"bytes","internalType":"bytes"},{"name":"rhsHash","type":"bytes","internalType":"bytes"}],"outputs":[{"name":"","type":"bytes","internalType":"bytes"}],"stateMutability":"pure"},{"type":"function","name":"and","inputs":[{"name":"utype","type":"uint8","internalType":"uint8"},{"name":"lhsHash","type":"bytes","internalType":"bytes"},{"name":"rhsHash","type":"bytes","internalType":"bytes"}],"outputs":[{"name":"","type":"bytes","internalType":"bytes"}],"stateMutability":"pure"},{"type":"function","name":"boolToBytes","inputs":[{"name":"value","type":"bool","internalType":"bool"}],"outputs":[{"name":"","type":"bytes","internalType":"bytes"}],"stateMutability":"pure"},{"type":"function","name":"cast","inputs":[{"name":"","type":"uint8","internalType":"uint8"},{"name":"input","type":"bytes","internalType":"bytes"},{"name":"toType","type":"uint8","internalType":"uint8"}],"outputs":[{"name":"","type":"bytes","internalType":"bytes"}],"stateMutability":"pure"},{"type":"function","name":"decrypt","inputs":[{"name":"","type":"uint8","internalType":"uint8"},{"name":"input","type":"bytes","internalType":"bytes"},{"name":"","type":"uint256","internalType":"uint256"}],"outputs":[{"name":"","type":"uint256","internalType":"uint256"}],"stateMutability":"pure"},{"type":"function","name":"div","inputs":[{"name":"utype","type":"uint8","internalType":"uint8"},{"name":"lhsHash","type":"bytes","internalType":"bytes"},{"name":"rhsHash","type":"bytes","internalType":"bytes"}],"outputs":[{"name":"","type":"bytes","internalType":"bytes"}],"stateMutability":"pure"},{"type":"function","name":"eq","inputs":[{"name":"utype","type":"uint8","internalType":"uint8"},{"name":"lhsHash","type":"bytes","internalType":"bytes"},{"name":"rhsHash","type":"bytes","internalType":"bytes"}],"outputs":[{"name":"","type":"bytes","internalType":"bytes"}],"stateMutability":"pure"},{"type":"function","name":"getNetworkPublicKey","inputs":[{"name":"","type":"int32","internalType":"int32"}],"outputs":[{"name":"","type":"bytes","internalType":"bytes"}],"stateMutability":"pure"},{"type":"function","name":"gt","inputs":[{"name":"utype","type":"uint8","internalType":"uint8"},{"name":"lhsHash","type":"bytes","internalType":"bytes"},{"name":"rhsHash","type":"bytes","internalType":"bytes"}],"outputs":[{"name":"","type":"bytes","internalType":"bytes"}],"stateMutability":"pure"},{"type":"function","name":"gte","inputs":[{"name":"utype","type":"uint8","internalType":"uint8"},{"name":"lhsHash","type":"bytes","internalType":"bytes"},{"name":"rhsHash","type":"bytes","internalType":"bytes"}],"outputs":[{"name":"","type":"bytes","internalType":"bytes"}],"stateMutability":"pure"},{"type":"function","name":"log","inputs":[{"name":"s","type":"string","internalType":"string"}],"outputs":[],"stateMutability":"pure"},{"type":"function","name":"lt","inputs":[{"name":"utype","type":"uint8","internalType":"uint8"},{"name":"lhsHash","type":"bytes","internalType":"bytes"},{"name":"rhsHash","type":"bytes","internalType":"bytes"}],"outputs":[{"name":"","type":"bytes","internalType":"bytes"}],"stateMutability":"pure"},{"type":"function","name":"lte","inputs":[{"name":"utype","type":"uint8","internalType":"uint8"},{"name":"lhsHash","type":"bytes","internalType":"bytes"},{"name":"rhsHash","type":"bytes","internalType":"bytes"}],"outputs":[{"name":"","type":"bytes","internalType":"bytes"}],"stateMutability":"pure"},{"type":"function","name":"max","inputs":[{"name":"utype","type":"uint8","internalType":"uint8"},{"name":"lhsHash","type":"bytes","internalType":"bytes"},{"name":"rhsHash","type":"bytes","internalType":"bytes"}],"outputs":[{"name":"","type":"bytes","internalType":"bytes"}],"stateMutability":"pure"},{"type":"function","name":"maxValue","inputs":[{"name":"utype","type":"uint8","internalType":"uint8"}],"outputs":[{"name":"","type":"uint256","internalType":"uint256"}],"stateMutability":"pure"},{"type":"function","name":"min","inputs":[{"name":"utype","type":"uint8","internalType":"uint8"},{"name":"lhsHash","type":"bytes","internalType":"bytes"},{"name":"rhsHash","type":"bytes","internalType":"bytes"}],"outputs":[{"name":"","type":"bytes","internalType":"bytes"}],"stateMutability":"pure"},{"type":"function","name":"mul","inputs":[{"name":"utype","type":"uint8","internalType":"uint8"},{"name":"lhsHash","type":"bytes","internalType":"bytes"},{"name":"rhsHash","type":"bytes","internalType":"bytes"}],"outputs":[{"name":"","type":"bytes","internalType":"bytes"}],"stateMutability":"pure"},{"type":"function","name":"ne","inputs":[{"name":"utype","type":"uint8","internalType":"uint8"},{"name":"lhsHash","type":"bytes","internalType":"bytes"},{"name":"rhsHash","type":"bytes","internalType":"bytes"}],"outputs":[{"name":"","type":"bytes","internalType":"bytes"}],"stateMutability":"pure"},{"type":"function","name":"not","inputs":[{"name":"utype","type":"uint8","internalType":"uint8"},{"name":"value","type":"bytes","internalType":"bytes"}],"outputs":[{"name":"","type":"bytes","internalType":"bytes"}],"stateMutability":"pure"},{"type":"function","name":"or","inputs":[{"name":"utype","type":"uint8","internalType":"uint8"},{"name":"lhsHash","type":"bytes","internalType":"bytes"},{"name":"rhsHash","type":"bytes","internalType":"bytes"}],"outputs":[{"name":"","type":"bytes","internalType":"bytes"}],"stateMutability":"pure"},{"type":"function","name":"random","inputs":[{"name":"utype","type":"uint8","internalType":"uint8"},{"name":"","type":"uint64","internalType":"uint64"},{"name":"","type":"int32","internalType":"int32"}],"outputs":[{"name":"","type":"bytes","internalType":"bytes"}],"stateMutability":"view"},{"type":"function","name":"rem","inputs":[{"name":"utype","type":"uint8","internalType":"uint8"},{"name":"lhsHash","type":"bytes","internalType":"bytes"},{"name":"rhsHash","type":"bytes","internalType":"bytes"}],"outputs":[{"name":"","type":"bytes","internalType":"bytes"}],"stateMutability":"pure"},{"type":"function","name":"req","inputs":[{"name":"","type":"uint8","internalType":"uint8"},{"name":"input","type":"bytes","internalType":"bytes"}],"outputs":[{"name":"","type":"bytes","internalType":"bytes"}],"stateMutability":"pure"},{"type":"function","name":"sealOutput","inputs":[{"name":"","type":"uint8","internalType":"uint8"},{"name":"ctHash","type":"bytes","internalType":"bytes"},{"name":"","type":"bytes","internalType":"bytes"}],"outputs":[{"name":"","type":"string","internalType":"string"}],"stateMutability":"pure"},{"type":"function","name":"select","inputs":[{"name":"","type":"uint8","internalType":"uint8"},{"name":"controlHash","type":"bytes","internalType":"bytes"},{"name":"ifTrueHash","type":"bytes","internalType":"bytes"},{"name":"ifFalseHash","type":"bytes","internalType":"bytes"}],"outputs":[{"name":"","type":"bytes","internalType":"bytes"}],"stateMutability":"pure"},{"type":"function","name":"shl","inputs":[{"name":"","type":"uint8","internalType":"uint8"},{"name":"lhsHash","type":"bytes","internalType":"bytes"},{"name":"rhsHash","type":"bytes","internalType":"bytes"}],"outputs":[{"name":"","type":"bytes","internalType":"bytes"}],"stateMutability":"pure"},{"type":"function","name":"shr","inputs":[{"name":"","type":"uint8","internalType":"uint8"},{"name":"lhsHash","type":"bytes","internalType":"bytes"},{"name":"rhsHash","type":"bytes","internalType":"bytes"}],"outputs":[{"name":"","type":"bytes","internalType":"bytes"}],"stateMutability":"pure"},{"type":"function","name":"sub","inputs":[{"name":"utype","type":"uint8","internalType":"uint8"},{"name":"lhsHash","type":"bytes","internalType":"bytes"},{"name":"rhsHash","type":"bytes","internalType":"bytes"}],"outputs":[{"name":"","type":"bytes","internalType":"bytes"}],"stateMutability":"pure"},{"type":"function","name":"trivialEncrypt","inputs":[{"name":"input","type":"bytes","internalType":"bytes"},{"name":"toType","type":"uint8","internalType":"uint8"},{"name":"","type":"int32","internalType":"int32"}],"outputs":[{"name":"","type":"bytes","internalType":"bytes"}],"stateMutability":"pure"},{"type":"function","name":"uint256ToBytes","inputs":[{"name":"value","type":"uint256","internalType":"uint256"}],"outputs":[{"name":"","type":"bytes","internalType":"bytes"}],"stateMutability":"pure"},{"type":"function","name":"verify","inputs":[{"name":"","type":"uint8","internalType":"uint8"},{"name":"input","type":"bytes","internalType":"bytes"},{"name":"","type":"int32","internalType":"int32"}],"outputs":[{"name":"","type":"bytes","internalType":"bytes"}],"stateMutability":"pure"},{"type":"function","name":"xor","inputs":[{"name":"utype","type":"uint8","internalType":"uint8"},{"name":"lhsHash","type":"bytes","internalType":"bytes"},{"name":"rhsHash","type":"bytes","internalType":"bytes"}],"outputs":[{"name":"","type":"bytes","internalType":"bytes"}],"stateMutability":"pure"}],"bytecode":{"object":"0x6080604052348015600f57600080fd5b506113678061001f6000396000f3fe608060405234801561001057600080fd5b50600436106101ef5760003560e01c8063874b1c101161010f578063b9c7a54b116100a2578063cc2cbeff11610071578063cc2cbeff14610428578063d260d9ab1461043b578063eb274b771461044e578063eb3768041461046157600080fd5b8063b9c7a54b146103dc578063ba19ac28146103ef578063c2d9695214610402578063c7559da41461041557600080fd5b8063aa626e8a116100de578063aa626e8a14610390578063ae104cfd146103a3578063ae42450a146103b6578063b8fa1043146103c957600080fd5b8063874b1c101461034957806392348b341461035c5780639944d12d1461036f578063a1848ff31461038257600080fd5b80634a5a111711610187578063650de1cf11610156578063650de1cf146102fd57806372d456f5146103105780637c4697ab146103235780637d23f1db1461033657600080fd5b80634a5a1117146102a35780635211c679146102b657806355e5e6c5146102c95780635e639f19146102ea57600080fd5b80631f4cda2f116101c35780631f4cda2f1461025657806321b50ba31461026957806341304fac1461027d5780634284f7651461029057600080fd5b80622df619146101f45780630b80518e1461021d57806313c0c9ae146102305780631b1b484e14610243575b600080fd5b610207610202366004610db3565b610474565b6040516102149190610e7a565b60405180910390f35b61020761022b366004610db3565b6104bd565b61020761023e366004610db3565b610518565b610207610251366004610e9f565b610561565b610207610264366004610db3565b610585565b610207610277366004610eba565b50919050565b61028e61028b366004610f17565b50565b005b61020761029e366004610db3565b6105ae565b6102076102b1366004610f5f565b6105d7565b6102076102c4366004610db3565b6105f0565b6102dc6102d7366004610fb3565b61064b565b604051908152602001610214565b6102076102f8366004610db3565b610769565b61020761030b366004610db3565b61078c565b61020761031e366004610db3565b6107d5565b6102dc610331366004610fce565b6107f8565b610207610344366004611025565b610804565b610207610357366004610db3565b610827565b61020761036a366004610db3565b61086f565b61020761037d366004610db3565b6108b7565b610207610277366004610db3565b61020761039e366004611072565b6108ea565b6102076103b1366004610db3565b61092e565b6102076103c4366004610db3565b610951565b6102076103d73660046110ba565b610979565b6102076103ea366004610db3565b610a0d565b6102076103fd3660046110dc565b610a55565b610207610410366004611122565b610a6e565b6102076104233660046111c4565b610a96565b610207610436366004610db3565b610ac7565b610207610449366004611025565b610af0565b61020761045c366004610db3565b610b0a565b61020761046f366004610db3565b610b53565b606060006104818561064b565b61048a84610b7c565b61049386610b7c565b61049d91906111f3565b6104a7919061121c565b90506104b281610a96565b9150505b9392505050565b606060006104ca8561064b565b6104d384610b7c565b6104dd919061121c565b6104e68661064b565b6104ef86610b7c565b6104f9919061121c565b10159050600181900361050f57839150506104b6565b50909392505050565b606060006105258561064b565b61052e84610b7c565b610538919061121c565b6105418661064b565b61054a86610b7c565b610554919061121c565b141590506104b281610979565b606060006040518060800160405280604181526020016112f1604191399392505050565b606060006105928561064b565b61059b84610b7c565b6105a486610b7c565b61049d9190611230565b606060006105bb8561064b565b6105c484610b7c565b6105cd86610b7c565b61049d9190611244565b606060006105e48461125b565b90506104b28184610c4e565b606060006105fd8561064b565b61060684610b7c565b610610919061121c565b6106198661064b565b61062286610b7c565b61062c919061121c565b10159050600181900361064257829150506104b6565b50919392505050565b60008060ff8316810361066b5761066460ff60016111f3565b9050610763565b8260ff166001036106835761066461ffff60016111f3565b8260ff1660020361069d5761066463ffffffff60016111f3565b8260ff166003036106ba576106646001600160401b0360016111f3565b8260ff166004036106e0576106646fffffffffffffffffffffffffffffffff60016111f3565b8260ff166005036106f357506001610763565b8260ff16600c03610710576106646001600160a01b0360016111f3565b8260ff16600d0361072357506001610763565b60405162461bcd60e51b815260206004820152601060248201526f556e737570706f72746564207479706560801b60448201526064015b60405180910390fd5b92915050565b606060006107768361125b565b61077f8561125b565b1890506104b28186610c4e565b606060006107998561064b565b6107a284610b7c565b6107ac919061121c565b6107b58661064b565b6107be86610b7c565b6107c8919061121c565b101590506104b281610979565b606060006107e28361125b565b6107eb8561125b565b1790506104b28186610c4e565b6000806104b284610b7c565b6060600061081183610b7c565b151590508061081f57600080fd5b509092915050565b606060006108348561064b565b61083d84610b7c565b610847919061121c565b6108508661064b565b61085986610b7c565b610863919061121c565b1190506104b281610979565b6060600061087c8561064b565b61088584610b7c565b61088f919061121c565b6108988661064b565b6108a186610b7c565b6108ab919061121c565b1490506104b281610979565b606060006108c484610b7c565b905060006108d184610b7c565b905081811c6108df81610a96565b979650505050505050565b60606109266108f88561064b565b60408051426020820152016040516020818303038152906040528051906020012060001c610423919061121c565b949350505050565b6060600061093b8361125b565b6109448561125b565b1690506104b28186610c4e565b6060600061095e84610b7c565b9050600061096b84610b7c565b905081811b6108df81610a96565b6040805160018082528183019092526060916000919060208201818036833701905050905082156109d857600160f81b816000815181106109bc576109bc61127f565b60200101906001600160f81b031916908160001a905350610763565b600060f81b816000815181106109f0576109f061127f565b60200101906001600160f81b031916908160001a90535092915050565b60606000610a1a8561064b565b610a2384610b7c565b610a2d919061121c565b610a368661064b565b610a3f86610b7c565b610a49919061121c565b1090506104b281610979565b60606000610a628561125b565b90506104b28185610c4e565b60606000610a7b85610c7a565b90508015610a8c5783915050610926565b5090949350505050565b6040805160208082528183019092526060916000919060208201818036833750505060208101939093525090919050565b60606000610ad48561064b565b610add84610b7c565b610ae686610b7c565b61049d9190611295565b60606000610afd8361125b565b1990506109268185610c4e565b60606000610b178561064b565b610b2084610b7c565b610b2a919061121c565b610b338661064b565b610b3c86610b7c565b610b46919061121c565b111590506104b281610979565b60606000610b608561064b565b610b6984610b7c565b610b7286610b7c565b61049d919061121c565b6000602082511115610bcb5760405162461bcd60e51b8152602060048201526018602482015277213cba32b9903632b733ba341032bc31b2b2b2399019991760411b604482015260640161075a565b8151610bd8906020611295565b6001600160401b03811115610bef57610bef610d05565b6040519080825280601f01601f191660200182016040528015610c19576020820181803683370190505b5082604051602001610c2c9291906112a8565b60405160208183030381529060405280602001905181019061076391906112d7565b606082604051602001610c6391815260200190565b604051602081830303815290604052905092915050565b6000602082511115610cc95760405162461bcd60e51b8152602060048201526018602482015277213cba32b9903632b733ba341032bc31b2b2b2399019991760411b604482015260640161075a565b600082600081518110610cde57610cde61127f565b016020015160f81c15159392505050565b803560ff81168114610d0057600080fd5b919050565b634e487b7160e01b600052604160045260246000fd5b6000806001600160401b03841115610d3557610d35610d05565b50604051601f19601f85018116603f011681018181106001600160401b0382111715610d6357610d63610d05565b604052838152905080828401851015610d7b57600080fd5b83836020830137600060208583010152509392505050565b600082601f830112610da457600080fd5b6104b683833560208501610d1b565b600080600060608486031215610dc857600080fd5b610dd184610cef565b925060208401356001600160401b03811115610dec57600080fd5b610df886828701610d93565b92505060408401356001600160401b03811115610e1457600080fd5b610e2086828701610d93565b9150509250925092565b60005b83811015610e45578181015183820152602001610e2d565b50506000910152565b60008151808452610e66816020860160208601610e2a565b601f01601f19169290920160200192915050565b6020815260006104b66020830184610e4e565b8035600381900b8114610d0057600080fd5b600060208284031215610eb157600080fd5b6104b682610e8d565b600080600060608486031215610ecf57600080fd5b610ed884610cef565b925060208401356001600160401b03811115610ef357600080fd5b610eff86828701610d93565b925050610f0e60408501610e8d565b90509250925092565b600060208284031215610f2957600080fd5b81356001600160401b03811115610f3f57600080fd5b8201601f81018413610f5057600080fd5b61092684823560208401610d1b565b600080600060608486031215610f7457600080fd5b610f7d84610cef565b925060208401356001600160401b03811115610f9857600080fd5b610fa486828701610d93565b925050610f0e60408501610cef565b600060208284031215610fc557600080fd5b6104b682610cef565b600080600060608486031215610fe357600080fd5b610fec84610cef565b925060208401356001600160401b0381111561100757600080fd5b61101386828701610d93565b93969395505050506040919091013590565b6000806040838503121561103857600080fd5b61104183610cef565b915060208301356001600160401b0381111561105c57600080fd5b61106885828601610d93565b9150509250929050565b60008060006060848603121561108757600080fd5b61109084610cef565b925060208401356001600160401b03811681146110ac57600080fd5b9150610f0e60408501610e8d565b6000602082840312156110cc57600080fd5b813580151581146104b657600080fd5b6000806000606084860312156110f157600080fd5b83356001600160401b0381111561110757600080fd5b61111386828701610d93565b9350506110ac60208501610cef565b6000806000806080858703121561113857600080fd5b61114185610cef565b935060208501356001600160401b0381111561115c57600080fd5b61116887828801610d93565b93505060408501356001600160401b0381111561118457600080fd5b61119087828801610d93565b92505060608501356001600160401b038111156111ac57600080fd5b6111b887828801610d93565b91505092959194509250565b6000602082840312156111d657600080fd5b5035919050565b634e487b7160e01b600052601160045260246000fd5b80820180821115610763576107636111dd565b634e487b7160e01b600052601260045260246000fd5b60008261122b5761122b611206565b500690565b60008261123f5761123f611206565b500490565b8082028115828204841417610763576107636111dd565b805160208083015191908110156102775760001960209190910360031b1b16919050565b634e487b7160e01b600052603260045260246000fd5b81810381811115610763576107636111dd565b600083516112ba818460208801610e2a565b8351908301906112ce818360208801610e2a565b01949350505050565b6000602082840312156112e957600080fd5b505191905056fe28282d282d5f282d5f2d295f2d292d292920596f75277665207374657070656420696e746f207468652077726f6e67206e65696768626f72686f6f642070616c2ea264697066735822122044332acabec9990489c9d0b4c0e057f0e9c8b0c5c4473e56e5bba4544375200164736f6c634300081a0033","linkReferences":{}},"methodIdentifiers":{"add(uint8,bytes,bytes)":"002df619","and(uint8,bytes,bytes)":"ae104cfd","boolToBytes(bool)":"b8fa1043","cast(uint8,bytes,uint8)":"4a5a1117","decrypt(uint8,bytes,uint256)":"7c4697ab","div(uint8,bytes,bytes)":"1f4cda2f","eq(uint8,bytes,bytes)":"92348b34","getNetworkPublicKey(int32)":"1b1b484e","gt(uint8,bytes,bytes)":"874b1c10","gte(uint8,bytes,bytes)":"650de1cf","log(string)":"41304fac","lt(uint8,bytes,bytes)":"b9c7a54b","lte(uint8,bytes,bytes)":"eb274b77","max(uint8,bytes,bytes)":"0b80518e","maxValue(uint8)":"55e5e6c5","min(uint8,bytes,bytes)":"5211c679","mul(uint8,bytes,bytes)":"4284f765","ne(uint8,bytes,bytes)":"13c0c9ae","not(uint8,bytes)":"d260d9ab","or(uint8,bytes,bytes)":"72d456f5","random(uint8,uint64,int32)":"aa626e8a","rem(uint8,bytes,bytes)":"eb376804","req(uint8,bytes)":"7d23f1db","sealOutput(uint8,bytes,bytes)":"a1848ff3","select(uint8,bytes,bytes,bytes)":"c2d96952","shl(uint8,bytes,bytes)":"ae42450a","shr(uint8,bytes,bytes)":"9944d12d","sub(uint8,bytes,bytes)":"cc2cbeff","trivialEncrypt(bytes,uint8,int32)":"ba19ac28","uint256ToBytes(uint256)":"c7559da4","verify(uint8,bytes,int32)":"21b50ba3","xor(uint8,bytes,bytes)":"5e639f19"},"id":22}