{"abi":[{"type":"function","name":"eip712Domain","inputs":[],"outputs":[{"name":"fields","type":"bytes1","internalType":"bytes1"},{"name":"name","type":"string","internalType":"string"},{"name":"version","type":"string","internalType":"string"},{"name":"chainId","type":"uint256","internalType":"uint256"},{"name":"verifyingContract","type":"address","internalType":"address"},{"name":"salt","type":"bytes32","internalType":"bytes32"},{"name":"extensions","type":"uint256[]","internalType":"uint256[]"}],"stateMutability":"view"},{"type":"function","name":"encryptedNumber","inputs":[],"outputs":[{"name":"","type":"uint256","internalType":"euint8"}],"stateMutability":"view"},{"type":"function","name":"getEncryptedNumber","inputs":[{"name":"permission","type":"tuple","internalType":"struct Permission","components":[{"name":"publicKey","type":"bytes32","internalType":"bytes32"},{"name":"signature","type":"bytes","internalType":"bytes"}]}],"outputs":[{"name":"","type":"string","internalType":"string"}],"stateMutability":"view"},{"type":"function","name":"number","inputs":[],"outputs":[{"name":"","type":"uint256","internalType":"uint256"}],"stateMutability":"view"},{"type":"function","name":"setEncryptedNumber","inputs":[{"name":"_encryptedNumber","type":"tuple","internalType":"struct inEuint8","components":[{"name":"data","type":"bytes","internalType":"bytes"},{"name":"securityZone","type":"int32","internalType":"int32"}]}],"outputs":[],"stateMutability":"nonpayable"},{"type":"event","name":"EIP712DomainChanged","inputs":[],"anonymous":false},{"type":"error","name":"InvalidShortString","inputs":[]},{"type":"error","name":"SignerNotMessageSender","inputs":[]},{"type":"error","name":"SignerNotOwner","inputs":[]},{"type":"error","name":"StringTooLong","inputs":[{"name":"str","type":"string","internalType":"string"}]}],"bytecode":{"object":"0x61016060405234801561001157600080fd5b506040805180820182526011815270233432b734bc102832b936b4b9b9b4b7b760791b602080830191909152825180840190935260038352620312e360ec1b908301529061006082600061010a565b6101205261006f81600161010a565b61014052815160208084019190912060e052815190820120610100524660a0526100fc60e05161010051604080517f8b73c3c69bb8fe3d512ecc4cf759cc79239f7b179b0ffacaa9a75d522b39400f60208201529081019290925260608201524660808201523060a082015260009060c00160405160208183030381529060405280519060200120905090565b60805250503060c052610353565b60006020835110156101265761011f8361013d565b9050610137565b816101318482610223565b5060ff90505b92915050565b600080829050601f81511115610171578260405163305a27a960e01b815260040161016891906102e1565b60405180910390fd5b805161017c8261032f565b179392505050565b634e487b7160e01b600052604160045260246000fd5b600181811c908216806101ae57607f821691505b6020821081036101ce57634e487b7160e01b600052602260045260246000fd5b50919050565b601f82111561021e57806000526020600020601f840160051c810160208510156101fb5750805b601f840160051c820191505b8181101561021b5760008155600101610207565b50505b505050565b81516001600160401b0381111561023c5761023c610184565b6102508161024a845461019a565b846101d4565b6020601f821160018114610284576000831561026c5750848201515b600019600385901b1c1916600184901b17845561021b565b600084815260208120601f198516915b828110156102b45787850151825560209485019460019092019101610294565b50848210156102d25786840151600019600387901b60f8161c191681555b50505050600190811b01905550565b602081526000825180602084015260005b8181101561030f57602081860181015160408684010152016102f2565b506000604082850101526040601f19601f83011684010191505092915050565b805160208083015191908110156101ce5760001960209190910360031b1b16919050565b60805160a05160c05160e05161010051610120516101405161091361039e60003960006101ac0152600061017a015260005050600050506000505060005050600050506109136000f3fe608060405234801561001057600080fd5b50600436106100575760003560e01c8063119110de1461005c5780638381f58a1461008557806384b0196e1461009c578063d07db1ab146100b7578063d903455b146100cc575b600080fd5b61006f61006a366004610584565b6100d5565b60405161007c919061064f565b60405180910390f35b61008e60025481565b60405190815260200161007c565b6100a46100ed565b60405161007c9796959493929190610662565b6100ca6100c53660046106fa565b610133565b005b61008e60035481565b60606100e7600354836000015161014a565b92915050565b600060608060008060006060610101610173565b6101096101a5565b60408051600080825260208201909252600f60f81b9b939a50919850469750309650945092509050565b61014461013f82610735565b6101d2565b60035550565b60608261015e5761015b60006101e6565b92505b8261016b600082856101f4565b949350505050565b60606101a07f0000000000000000000000000000000000000000000000000000000000000000600061028f565b905090565b60606101a07f0000000000000000000000000000000000000000000000000000000000000000600161028f565b60006100e78260000151836020015161033a565b60006100e782600080610348565b6060608063a1848ff385610207866103d7565b6040805160208101889052016040516020818303038152906040526040518463ffffffff1660e01b815260040161024093929190610794565b600060405180830381865afa15801561025d573d6000803e3d6000fd5b505050506040513d6000823e601f3d908101601f1916820160405261028591908101906107fc565b90505b9392505050565b606060ff83146102a9576102a283610401565b90506100e7565b8180546102b590610845565b80601f01602080910402602001604051908101604052809291908181526020018280546102e190610845565b801561032e5780601f106103035761010080835404028352916020019161032e565b820191906000526020600020905b81548152906001019060200180831161031157829003601f168201915b505050505090506100e7565b600061028883600084610440565b60006060608063ba19ac2861035c876103d7565b86866040518463ffffffff1660e01b815260040161037c9392919061087f565b600060405180830381865afa158015610399573d6000803e3d6000fd5b505050506040513d6000823e601f3d908101601f191682016040526103c191908101906107fc565b90506103ce816020015190565b95945050505050565b60408051602080825281830190925260609160208201818036833750505060208101929092525090565b6060600061040e8361046e565b604080516020808252818301909252919250600091906020820181803683375050509182525060208101929092525090565b6040516321b50ba360e01b81526000906060906080906321b50ba39061037c908790899088906004016108ae565b600060ff8216601f8111156100e757604051632cd44ac360e21b815260040160405180910390fd5b634e487b7160e01b600052604160045260246000fd5b6040805190810167ffffffffffffffff811182821017156104cf576104cf610496565b60405290565b604051601f8201601f1916810167ffffffffffffffff811182821017156104fe576104fe610496565b604052919050565b600067ffffffffffffffff82111561052057610520610496565b50601f01601f191660200190565b600082601f83011261053f57600080fd5b813561055261054d82610506565b6104d5565b81815284602083860101111561056757600080fd5b816020850160208301376000918101602001919091529392505050565b60006020828403121561059657600080fd5b813567ffffffffffffffff8111156105ad57600080fd5b8201604081850312156105bf57600080fd5b6105c76104ac565b81358152602082013567ffffffffffffffff8111156105e557600080fd5b6105f18682850161052e565b602083015250949350505050565b60005b8381101561061a578181015183820152602001610602565b50506000910152565b6000815180845261063b8160208601602086016105ff565b601f01601f19169290920160200192915050565b6020815260006102886020830184610623565b60ff60f81b8816815260e06020820152600061068160e0830189610623565b82810360408401526106938189610623565b606084018890526001600160a01b038716608085015260a0840186905283810360c08501528451808252602080870193509091019060005b818110156106e95783518352602093840193909201916001016106cb565b50909b9a5050505050505050505050565b60006020828403121561070c57600080fd5b813567ffffffffffffffff81111561072357600080fd5b82016040818503121561028857600080fd5b60006040823603121561074757600080fd5b61074f6104ac565b823567ffffffffffffffff81111561076657600080fd5b6107723682860161052e565b82525060208301358060030b811461078957600080fd5b602082015292915050565b60ff841681526060602082015260006107b06060830185610623565b82810360408401526107c28185610623565b9695505050505050565b60006107da61054d84610506565b90508281528383830111156107ee57600080fd5b6102888360208301846105ff565b60006020828403121561080e57600080fd5b815167ffffffffffffffff81111561082557600080fd5b8201601f8101841361083657600080fd5b61016b848251602084016107cc565b600181811c9082168061085957607f821691505b60208210810361087957634e487b7160e01b600052602260045260246000fd5b50919050565b6060815260006108926060830186610623565b905060ff841660208301528260030b6040830152949350505050565b60ff841681526060602082015260006108ca6060830185610623565b90508260030b604083015294935050505056fea264697066735822122002d4908cec584d3249a5541611abb4136316d3c52865b6b67e6a5a550508911564736f6c634300081a0033","linkReferences":{}},"methodIdentifiers":{"eip712Domain()":"84b0196e","encryptedNumber()":"d903455b","getEncryptedNumber((bytes32,bytes))":"119110de","number()":"8381f58a","setEncryptedNumber((bytes,int32))":"d07db1ab"},"id":0}