{"abi":[{"type":"function","name":"Fheos","inputs":[],"outputs":[{"name":"","type":"address","internalType":"address"}],"stateMutability":"view"}],"bytecode":{"object":"0x60916037600b82828239805160001a607314602a57634e487b7160e01b600052600060045260246000fd5b30600052607381538281f3fe730000000000000000000000000000000000000000301460806040526004361060335760003560e01c806313d8d464146038575b600080fd5b603f608081565b6040516001600160a01b03909116815260200160405180910390f3fea26469706673582212208c131852e89241edec55602f0327ea5285c2df7b66d3a3850bd4142c9baf0f3764736f6c634300081a0033","linkReferences":{}},"methodIdentifiers":{"Fheos()":"13d8d464"},"id":2}